:100000000C9434000C9449000C9449000C94490061
:100010000C9449000C9449000C9449000C9449003C
:100020000C9449000C9449000C9449000C9449002C
:100030000C9449000C9449000C9449000C9449001C
:100040000C9449000C9449000C9449000C9449000C
:100050000C9449000C9449000C9449000C944900FC
:100060000C9449000C94490011241FBECFEFD8E036
:10007000DEBFCDBF11E0A0E0B1E0E0E1F1E002C001
:1000800005900D92A031B107D9F70E946F000C9432
:1000900086000C94000087E690E09093C500809362
:1000A000C40088E18093C10086E08093C200089577
:1000B000E0ECF0E0908195FFFDCF8093C6000895BD
:1000C000CF93DF93EC018881882331F021960E9441
:1000D000580089918111FBCFDF91CF910895259A26
:1000E00087E690E00E944B00C0E285B18C2785B97D
:1000F00080E091E00E9460002FEF83ED90E32150BB
:1001000080409040E1F700C00000EFCFF894FFCFAF
:100110004C454420746F67676C6564210D0A0000CC
:00000001FF
