:100000000C9434000C9451000C9451000C94510049
:100010000C9451000C9451000C9451000C9451001C
:100020000C9451000C9451000C9451000C9451000C
:100030000C9451000C9451000C9451000C945100FC
:100040000C9451000C9451000C9451000C945100EC
:100050000C9451000C9451000C9451000C945100DC
:100060000C9451000C94510011241FBECFEFD8E026
:10007000DEBFCDBF11E0A0E0B1E0EAE1F2E002C0F6
:1000800005900D92AC39B107D9F721E0ACE9B1E0A8
:1000900001C01D92AD3BB207E1F70E94B6000C947F
:1000A0000B010C9400001092C50087E68093C400F9
:1000B00088E18093C10086E08093C2000895E0EC5F
:1000C000F0E0908195FFFDCF8093C6000895CF9317
:1000D000DF93EC018881882331F021960E945F0034
:1000E00089918111FBCFDF91CF910895CF93DF9359
:1000F000EC0160E071E00E94F400892B31F42D9A4C
:1001000087E091E00E9467002EC061E171E0CE01BE
:100110000E94F400892B31F42D9889E191E00E942E
:10012000670021C045E050E064E271E0CE010E942A
:10013000FD00892B69F48AE291E00E946700CE01FC
:1001400005960E9467008EE491E00E9467000BC054
:1001500084E391E00E946700CE010E9467008DE475
:1001600091E00E946700DF91CF910895259A0E9447
:10017000530081E591E00E9467008AE691E00E94C9
:10018000670086E791E00E946700C0ECD0E006ECD3
:1001900010E0888188230CF5F80180818D3011F002
:1001A0008A3079F4E0919C01EE23B9F0F0E0E35657
:1001B000FE4F10828DE991E00E94760010929C0122
:1001C0000CC0E0919C01EF3140F491E09E0F9093C0
:1001D0009C01F0E0E356FE4F808383EC99E00197A9
:1001E000F1F700C00000D5CFFB01DC018D9101903B
:1001F00080190110D9F3990B0895FB01DC014150DE
:10020000504030F08D910190801919F40020B9F719
:0A021000881B990B0895F894FFCFA6
:10021A004C45445F4F4E004C45443A204F4E0D0A20
:10022A00004C45445F4F4646004C45443A204F46F1
:10023A00460D0A00544558543A00444953504C411B
:10024A00593A20004552524F523A20556E6B6E6F02
:10025A00776E20636F6D6D616E64202700270D0A2B
:10026A00000D0A3D3D3D2053595354454D205245FA
:10027A00414459203D3D3D0D0A00436F6D6D616E4D
:10028A0064733A0D0A004C45445F4F4E2C204C458E
:10029A00445F4F46462C20544558543A796F75723C
:0C02AA005F6D6573736167650D0A0000ED
:00000001FF
