:100000000C9434000C9449000C9449000C94490061
:100010000C9449000C9449000C9449000C9449003C
:100020000C9449000C9449000C9449000C9449002C
:100030000C9449000C9449000C9449000C9449001C
:100040000C9449000C9449000C9449000C9449000C
:100050000C9449000C9449000C9449000C944900FC
:100060000C9449000C94490011241FBECFEFD8E036
:10007000DEBFCDBF11E0A0E0B1E0E4EEF2E002C0EF
:1000800005900D92AC34B107D9F70E94DA000C94B8
:1000900070010C9400005D9A00005D9881E28A95E1
:1000A000F1F700000895CF93C82F662311F05F9AEF
:1000B00001C05F9888B19C2F907F9695969583702C
:1000C000892B88B90E944B0088B1CF70CC0FCC0F20
:1000D0008370C82BC8B90E944B0081E28A95F1F762
:1000E0000000CF91089560E00E945300089561E000
:1000F0000E9453000895CF93DF93EC0188818823F9
:1001000031F021960E94770089918111FBCFDF9118
:10011000CF91089581E00E94730083EF91E00197F1
:10012000F1F700C0000008958AB1806A8AB987B1EA
:100130008C6387B983ED90E30197F1F700C000006D
:1001400060E083E30E94530060E082E30E9453007A
:1001500060E088E20E94530060E08CE00E9453005F
:1001600060E086E00E9453000E948A000895109289
:10017000C50087E68093C40088E18093C10086E0D3
:100180008093C2000895E0ECF0E0908195FFFDCFF0
:100190008093C6000895CF93DF93EC018881882374
:1001A00031F021960E94C30089918111FBCFDF912C
:1001B000CF910895CF93DF93CDB7DEB7A0970FB659
:1001C000F894DEBF0FBECDBF259A2D980E94B700D0
:1001D0000E9494000E948A0080E091E00E947B00CF
:1001E0008DE091E00E94CB0090E000EC10E00F2E3B
:1001F000F6ECEF2EF12CF02DD12C01C09D2DF80145
:1002000080818823E4F7F70180818D3019F08A30EE
:1002100009F043C0E1E0F0E0EC0FFD1FE90FF11D34
:1002200010826CE171E0CE0101960E945901892B88
:1002300039F42D9A83E291E00E94CB009D2DDFCF0F
:100240006CE271E0CE0101960E945901892B39F4CC
:100250002D9884E391E00E94CB009D2DD0CF44E007
:1002600050E06EE371E0CE0101960E946201892B9D
:1002700029F60E948A00CE0105960E947B0083E445
:1002800091E00E94CB00CE0105960E94CB008BE34B
:1002900091E00E94CB009D2DB2CF9F3108F0AFCFEF
:1002A000E1E0F0E0EC0FFD1FE90FF11D80839F5F9F
:1002B000A6CFFB01DC018D91019080190110D9F3CB
:1002C000990B0895FB01DC014150504030F08D91B5
:1002D0000190801919F40020B9F7881B990B089533
:0402E000F894FFCFC0
:1002E40053797374656D2052656164790053797331
:1002F40074656D2052656164790D0A004C45445F54
:100304004F4E004C45443A4F4E0D0A004C45445F55
:100314004F4646004C45443A4F46460D0A004C436E
:0C032400443A004C43445F4F4B3A000049
:00000001FF
